:100000000C94BD0C0C94040D0C941F0D0C94040D59
:100010000C94040D0C94040D0C942C2D0C94040DD4
:100020000C94040D0C94040D0C94040D0C94040D0C
:100030000C94040D0C94040D0C949F2D0C94040D41
:100040000C94040D0C94040D0C94040D0C94040DEC
:100050000C94040D0C94040D0C94040D0C94040DDC
:100060000C94040D0C94040D00000000000000002E
:100070000000000000000000000000000000000080
:100080000000000000000000000000000000000070
:100090000000000000000000000000000000000060
:1000A0000000804040202020201010101010080870
:1000B000040404083040800000000000000000003C
:1000C0000000000000000000000000000000000030
:1000D0000000000000000000000000000000000020
:1000E0000000000000808080000000000000000090
:1000F0000000000000000000000000000000000000
:1001000000000000000000000000000000000000EF
:1001100000000000000000000018648202020202D9
:1001200002010000000080800000000000000000CC
:10013000008000303000C0C1C1C2040810204080DF
:10014000000000808080804040404020202020101F
:10015000101010080808080804040404040202022D
:100160000201010101000000000000000000000089
:10017000000000000000000000000000000000007F
:10018000000000000000000000000000000000006F
:100190000000000000000000C03804030000000060
:1001A0000000000C0C0C0D010040A02122121111C6
:1001B000110908080808040408081010101010118C
:1001C0000F0101000000000000000000000000001E
:1001D000000000000000000000000000000000001F
:1001E000000000000000000000000000000000000F
:1001F00000000000000000000080808080804040FF
:100200004040402020202020101010101008080826
:1002100008080404040404020302020101010101AC
:100220000102020404080808080807000000000092
:1002300000000000000000000000000000000000BE
:1002400000000000000000000000000000000000AE
:10025000000000000000000000000000000000009E
:10026000000000000000000000000000000000008E
:10027000000000000000000000000000000000007E
:10028000000000000000000000000000000000006E
:10029000000000000000000000000000000000005E
:1002A000000080404020202020101010101008086E
:1002B000040404083040800000000000000000003A
:1002C000000000000000000000000000000000002E
:1002D000000000000000000000000000000000001E
:1002E000000000000080808000000000000000008E
:1002F00000000000000000000000000000000000FE
:1003000000000000000000000000000000000000ED
:1003100000000000000000000018648202020202D7
:1003200002010000000080800000000000000000CA
:10033000008000303000C0C1C1C2040810204080DD
:10034000000000808080804040404020202020101D
:10035000101010080808080804040404040202022B
:100360000201010101000000000000000000000087
:10037000000000000000000000000000000000007D
:10038000000000000000000000000000000000006D
:100390000000000000000000C0380403000000005E
:1003A0000000000C0C0C0D010040A02122121111C4
:1003B000110908080808040408081010101010118A
:1003C0000F0101000000000000000000000000001C
:1003D000000000000000000000000000000000001D
:1003E000000000000000000000000000000000000D
:1003F00000000000000000000080808080804040FD
:100400004040402020202020101010101008080824
:1004100008080404040404020302020101010101AA
:100420000102020404080808080807000000000090
:1004300000000000000000000000000000000000BC
:1004400000000000000000000000000000000000AC
:10045000000000000000000000000000000000009C
:10046000000000000000000000000000000000008C
:10047000000000000000000000000000000000007C
:10048000000000000000000000000000000000006C
:10049000000000000000000000000000000000005C
:1004A00000000080804040404020202020100804B0
:1004B000020204186080000000000000000000003C
:1004C000000000000000000000000000000000002C
:1004D000000000000000000000000000000000001C
:1004E000000000000080808000000000000000008C
:1004F00000000000000000000000000000000000FC
:1005000000000000000000000000000000000000EB
:100510000000000000000000003CC20101020204D3
:1005200004020100000000000000000000000000C4
:1005300000000060600081828284081020408000FA
:10054000000000808080804040404020202020101B
:100550001010100808080808040404040402020229
:100560000201010101000000000000000000000085
:10057000000000000000000000000000000000007B
:10058000000000000000000000000000000000006B
:10059000000000000000000080701906000000004C
:1005A0000000001818181B030040A0222414121287
:1005B000120B080808080505090910101010101181
:1005C0000F0101000000000000000000000000001A
:1005D000000000000000000000000000000000001B
:1005E000000000000000000000000000000000000B
:1005F00000000000000000000080808080804040FB
:100600004040402020202020101010101008080822
:1006100008080404040404020302020101010101A8
:10062000010202040408080808080700000000008E
:1006300000000000000000000000000000000000BA
:1006400000000000000000000000000000000000AA
:10065000000000000000000000000000000000009A
:10066000000000000000000000000000000000008A
:10067000000000000000000000000000000000007A
:10068000000000000000000000000000000000006A
:10069000000000000000000000000080800000005A
:1006A000000080404020202020101010100804027C
:1006B0000101020C3040800000000000000000003A
:1006C000000000000000000000000000000000002A
:1006D000000000000000000000000000000000001A
:1006E000000000000080808000000000000000008A
:1006F00000000000000000000000000000000000FA
:1007000000000000000000000000000000000000E9
:100710000000000000000000001EE10000010102D6
:1007200002010000000080800000000000000000C6
:10073000008000303000C0C1C1C2040810204080D9
:100740000000008080808040404040202020201019
:100750001010100808080808040404040402020227
:100760000201010101000000000000000000000083
:100770000000000000000000000000000000000079
:100780000000000000000000000000000000000069
:10079000000000000000000080700C03000000005A
:1007A0000000000C0C0C0D010040A02122121111C0
:1007B0001109080808080404080810101010101186
:1007C0000F01010000000000000000000000000018
:1007D0000000000000000000000000000000000019
:1007E0000000000000000000000000000000000009
:1007F00000000000000000000080808080804040F9
:100800004040402020202020101010101008080820
:1008100008080404040404020302020101010101A6
:10082000010202040408080808080700000000008C
:1008300000000000000000000000000000000000B8
:1008400000000000000000000000000000000000A8
:100850000000000000000000000000000000000098
:100860000000000000000000000000000000000088
:100870000000000000000000000000000000000078
:100880000000000000000000000000000000000068
:100890000000000000000000000000000000000058
:1008A0000000804040202020201010101008080474
:1008B0000202020438408000000000000000000036
:1008C0000000000000000000000000000000000028
:1008D0000000000000000000000000000000000018
:1008E0000000000000808080000000000000000088
:1008F00000000000000000000000000000000000F8
:1009000000000000000000000000000000000000E7
:100910000000000000000000001CE20101020202D1
:1009200002010000000080800000000000000000C4
:10093000008000303000C0C1C1C2040810204080D7
:100940000000008080808040404040202020201017
:100950001010100808080808040404040402020225
:100960000201010101000000000000000000000081
:100970000000000000000000000000000000000077
:100980000000000000000000000000000000000067
:10099000000000000000000080700C030000000058
:1009A0000000000C0C0C0D010040A02122121111BE
:1009B0001109080808080404080810101010101184
:1009C0000F01010000000000000000000000000016
:1009D0000000000000000000000000000000000017
:1009E0000000000000000000000000000000000007
:1009F00000000000000000000080808080804040F7
:100A0000404040202020202010101010100808081E
:100A100008080404040404020302020101010101A4
:100A2000010202040408080808080700000000008A
:100A300000000000000000000000000000000000B6
:100A400000000000000000000000000000000000A6
:100A50000000000000000000000000000000000096
:100A60000000000000000000000000000000000086
:100A70000000000000000000000000000000000076
:100A80000000000000000000000000000000000066
:100A90000000000000000000000000808000000056
:100AA0000000804040202020201010101008040278
:100AB0000101020C30408000000000000000000036
:100AC0000000000000000000000000000000000026
:100AD0000000000000000000000000000000000016
:100AE0000000000000808080000000000000000086
:100AF00000000000000000000000000000000000F6
:100B000000000000000000000000000000000000E5
:100B10000000000000000000001EE10000010102D2
:100B20000281808000008080000000000000000042
:100B30000080003030000001E11A06093135018AD9
:100B40007C00008080808040404040202020201099
:100B50001010100808080808040404040402020223
:100B6000020101010100000000000000000000007F
:100B70000000000000000000000000000000000075
:100B80000000000000000000000000000000000065
:100B9000000000000000000080700C030000180638
:100BA00005989984C37C41414040202122121111B3
:100BB00011090808080804040404040402020201DC
:100BC0000101010000000000000000000000000022
:100BD0000000000000000000000000000000000015
:100BE0000000000000000000000000000000000005
:100BF00000000000000000000080808080804040F5
:100C0000404040202020202010101010100808081C
:100C100008080404040404020302020101010101A2
:100C200001000000000000000000000000000000C3
:100C300000000000000000000000000000000000B4
:100C400000000000000000000000000000000000A4
:100C50000000000000000000000000000000000094
:100C60000000000000000000000000000000000084
:100C70000000000000000000000000000000000074
:100C80000000000000000000000000000000000064
:100C90000000000000000000000000808000000054
:100CA0000000804040202020201010101008040276
:100CB0000101020C30408000000000000000F8F844
:100CC000F8F8000000000080800000000000000034
:100CD0000000000000000000000000000000000014
:100CE0000000000000808080000000000000000084
:100CF00000000000000000000000000000000000F4
:100D000000000000000000000000000000000000E3
:100D10000000000000000000001EE10000010102D0
:100D20000281808000008080000000000000000040
:100D300000800030300000010102040810204387C9
:100D4000070100B8BCBE9F5F5F4F4C2020202010E1
:100D50001010100808080808040404040402020221
:100D6000020101010100000000000000000000007D
:100D70000000000000000000000000000000000073
:100D80000000000000000000000000000000000063
:100D9000000000000000000080700C030000180636
:100DA00005989984437C4141404020212212111131
:100DB0001109080808080404080810101010101180
:100DC0000F013D7CFCFCFCFCFC3C0C000000000026
:100DD0000000000000000000000000000000000013
:100DE0000000000000000000000000000000000003
:100DF00000000000000000000080808080804040F3
:100E0000404040202020202010101010100808081A
:100E100008080404040404020302020101010101A0
:100E200001000000000000000000000000000000C1
:100E300000000000000000000000000000000000B2
:100E4000000000000001030300000000000000009B
:100E50000000000000000000000000000000000092
:100E60000000000000000000000000000000000082
:100E70000000000000000000000000000000000072
:100E80000000000000000000000000000000000062
:100E90000000000000000000000000808000000052
:100EA0000000804040202020201010101008040274
:100EB0000101020C30408000000000000000000032
:100EC0000000000000000000000000000000000022
:100ED0000000000000000000000000000000000012
:100EE0000000000000808080000000000000000082
:100EF00000000000000000000000000000000000F2
:100F000000000000000000000000000000000000E1
:100F10000000000000000000001EE10000010102CE
:100F200002010000000080800000000000000000BE
:100F30000080003030000001E11A06093135018AD5
:100F40007C00008080808040404040202020201095
:100F5000101010080808080804040404040202021F
:100F6000020101010100000000000000000000007B
:100F70000000000000000000000000000000000071
:100F80000000000000000000000000000000000061
:100F9000000000000000000080700C030000000052
:100FA00000000000000001010040A02122121111E8
:100FB00011090808080804040404040402020201D8
:100FC000010101000000000000000000000000001E
:100FD0000000000000000000000000000000000011
:100FE0000000000000000000000000000000000001
:100FF00000000000000000000080808080804040F1
:101000004040402020202020101010101008080818
:101010000808040404040402037A7A797979793996
:101020003102020404080808888887800000000054
:1010300000000000000000000000000000000000B0
:1010400000000000000000000000000000000000A0
:101050000000000000000000000000000000000090
:1010600000000000000000002B0014001A0008001F
:10107000150017001C0003510400160007000900AA
:101080000A000B00E1003800E4001B000600190014
:101090000500E000E2000251E6002C0001512C00A6
:1010A00000003300A800130012000C00180000001C
:1010B000E3002A0028000F000E000D0000001D00B4
:1010C000E500370036001000110029001E001F0047
:1010D0002000210022002300010001003500310022
:1010E000010001000100010001004F0001000100AA
:1010F0000100010001000100510050004A00010000
:101100004D00000089000100270026002500240072
:10111000000001004C003400340030002F000000BB
:101120000100520038002E002D00010001003A009D
:101130003B003C003D003E003F00010044004500F4
:10114000680069006A006B00010070000100720015
:101150007300010001000100010001000100010015
:10116000880001000000010001004300420041002E
:10117000400000000100010001006E006D006C00E5
:1011800000007100010001000100010001000100E8
:10119000F400F000F500F900010001000100F20088
:1011A000F100F300FA00010001000100010001005C
:1011B0000100010001000100010001000100B20076
:1011C0000100010001000000BE000100A900AA000A
:1011D000AD00A8000000010001000100BD00AB004F
:1011E000AC0000000100010001000100010001004D
:1011F00000000000000000002A2B28000000000072
:1012000000000000000000000000002900000000B5
:101210002C1E3420212224342627252E362D373823
:10122000271E1F202122232425263333362E37382C
:101230001F0405060708090A0B0C0D0E0F101112EA
:10124000131415161718191A1B1C1D2F3130232DB6
:10125000350405060708090A0B0C0D0E0F101112B4
:10126000131415161718191A1B1C1D2F3130354C65
:10127000000000000000000000000000000000006E
:10128000000000000000000000000000000000005E
:10129000000000007E0F00D4FFFFFFC700000078B1
:1012A00000AE00AF00DA0281FFD9F1DB20A4A62E48
:1012B000AF00A0C000A1C800AED580A81FD30040D9
:1012C0008D1420000000000000003E5B4F5B3E00DC
:1012D0003E6B4F6B3E001C3E7C3E1C00183C7E3C2F
:1012E00018001C577D571C001C5E7F5E1C000018F8
:1012F0003C180000FFE7C3E7FF00001824180000B7
:10130000FFE7DBE7FF0030483A060E00262979297F
:101310002600407F05050700407F05253F005A3C19
:10132000E73C5A007F3E1C1C0800081C1C3E7F0046
:1013300014227F2214005F5F005F5F0006097F01B7
:101340007F00006689956A0060606060600094A21A
:10135000FFA2940008047E04080010207E201000E4
:1013600008082A1C0800081C2A0808001E10101073
:1013700010000C1E0C1E0C0030383E383000060EDB
:101380003E0E060000000000000000005F000000AC
:10139000000700070000147F147F1400242A7F2A0E
:1013A00012002313086462003649562050000008DA
:1013B00007030000001C224100000041221C000025
:1013C0002A1C7F1C2A0008083E0808000080703094
:1013D00000000808080808000000606000002010F5
:1013E000080402003E5149453E0000427F40000093
:1013F0007249494946002141494D33001814127F72
:1014000010002745454539003C4A494931004121F2
:1014100011090700364949493600464949291E0045
:1014200000001400000000403400000000081422F6
:101430004100141414141400004122140800020185
:10144000590906003E415D594E007C1211127C0084
:101450007F49494936003E41414122007F41414197
:101460003E007F49494941007F09090901003E4189
:10147000415173007F0808087F0000417F41000050
:101480002040413F01007F08142241007F4040403E
:1014900040007F021C027F007F0408107F003E4155
:1014A00041413E007F09090906003E4151215E008D
:1014B0007F091929460026494949320003017F0165
:1014C00003003F4040403F001F2040201F003F409E
:1014D00038403F00631408146300030478040300D9
:1014E0006159494D4300007F414141000204081009
:1014F0002000004141417F000402010204004040FD
:101500004040400000030708000020545478400089
:101510007F28444438003844444428003844442850
:101520007E0038545454180000087E090200182424
:10153000241C78007F080404780000447D400000EB
:101540002040403D00007F102844000000417F40C3
:1015500000007C04780478007C0804047800384497
:10156000444438007C1824241800182424187C00D3
:101570007C080404080048545454240004043F44E4
:1015800024003C4040207C001C2040201C003C40AB
:1015900030403C004428102844004C9090907C003F
:1015A0004464544C440000083641000000007700B9
:1015B00000000041360800000201020402003C263F
:1015C00023263C00000000000080C0E0F0F0300066
:1015D00000C060F0F0F0300080C020F0F0F020009B
:1015E0000000000080C0E0703018B8F8F000000083
:1015F0000000DC7E3FBEF0F0E00000000000008054
:10160000C0E070101818F8F06000000000C060F032
:10161000F8F83000000080E0F0F8F830000000003A
:1016200080E0F0FCFF3F0F0100000080C0E0F0F818
:1016300078000000000080C060309040203070E0F2
:10164000C00000404040404040404040404000001A
:1016500000E0FEFFFEF8C00000000000E0FCFFFE1E
:10166000F0000000000000000000013EE080700E6D
:101670000100000000073CE0807807000000000047
:101680000000000000180C06C3F9FE3FC7711806E1
:10169000C3F07C1FC7711806C3F8FE3F0F0180C05E
:1016A000F0F8FEDF47636030381E0F0781402018D6
:1016B000060381F0FC7F1F0780C0E0F8FC3E0F03AB
:1016C000010000000003018060100806E3FCFF3FFA
:1016D0000701C0308CE3FF7F1F0380C030188CE30C
:1016E000F9FF3F070180C030180CC3F1FC7F0F03E6
:1016F00080C0F0FCFE3F0701003EC18080E0FC3F5F
:101700008F4040C0F0FC7E4E000000000000000052
:10171000F8FFFF1F071FFFFEF0C0F8FF7F0F077FD6
:10172000FFFEFC04047880000000C0380C1C6080C0
:10173000000000F00C04F41C80C0FCE6C3C1C1C36F
:10174000E6FCC0800000383F3F1F07030000383E22
:101750003F1F0E030000307F7F3F190C0603010F6F
:101760001F3F716060703018080402010000000023
:10177000387E7F3F3B18040301000F1F31202020DB
:10178000201018080402010000001C3F7F7F311860
:101790000603183E3F3F1B0804020100001E3F3FA6
:1017A0003F10080402010000183E3F3F190C0603D9
:1017B00001000F1F3160606030181C0F070301012A
:1017C000000000183C3C1C00000000000000001F4E
:1017D0001F1F0700000000031F1F0F010000000073
:1017E000071F1F1EF8000F70300EC138070E7083E0
:1017F0001C601E03C03E01003F7FFFFFF9C0C0F91F
:10180000FFFF7F3F09025B00030100A0FA0904000B
:10181000000103010100092101010001224000072C
:10182000058103080001090401000203000000090A
:10183000210101000122220007058403080001079D
:101840000504030800010904020001030000000967
:101850002101010001227B0007058303080001121A
:1018600001100100000008776D031700010102005C
:101870000112034D00650072006300750074006979
:10188000006F00000012034D006500630068005700
:101890000069006C0064000000040309040660FF96
:1018A0000961A1010962150026FF009520750881D4
:1018B000020963150026FF00952075089102C005F6
:1018C000010902A10185020901A1000509190129E7
:1018D00008150025019508750181020501093009E7
:1018E000311581257F9502750881060938158125F6
:1018F0007F950175088106050C0A38021581257F40
:10190000950175088106C0C005010980A101850304
:1019100019012AB700150126B7009501751081003D
:10192000C0050C0901A101850419012AA0021501B5
:1019300026A002950175108100C005010906A101CC
:10194000050719E029E715002501950875018102B1
:101950009501750881030507190029FF150026FF69
:10196000009506750881000508190129059505757A
:10197000019102950175039103C011241FBECFEFA1
:10198000D8E0DEBFCDBF04B603FE27C08091A90515
:101990009091AA05A091AB05B091AC058730904B12
:1019A000A740B04BD1F41092A9051092AA0510924D
:1019B000AB051092AC0514BE84B7877F84BF0FB609
:1019C000F894A895809160008861809360001092DF
:1019D00060000FBEE0E0F8E3099511E0A0E0B1E09F
:1019E000E0E4FEE602C005900D92A03BB107D9F7F6
:1019F00025E0A0EBB1E001C01D92A93AB207E1F7E2
:101A00000E94581F0C94ED360C940000A82FB92F9B
:101A100080E090E041E050EA609530E009C02D910F
:101A200082279795879510F084279527305EC8F315
:101A30006F5FA8F30895EADF8D939D930895CF9388
:101A4000CFB7CF93DF93C3954B9BE9F74B9B10C068
:101A50004B9B0EC04B9B0CC04B9B0AC04B9B08C0C2
:101A60004B9B06C0C0918005C395C09380058EC076
:101A70006F93C0917F05DD27C957DA4F2F9365E536
:101A80004B9B03C02F916F91E1CF0F931F934F9307
:101A900020E040E15F9309B10C7003FB27F93F930D
:101AA00050E03BE039C01C7040642F77012F5F5F2E
:101AB0001EC0406819B11C702F7752501FC040647F
:101AC00009B12F770C70D1F15F5F00C023C0406275
:101AD00019B12F771C7091F15F5F00C025C00C70A9
:101AE0001027515012F45D5F0000115027952C3FD4
:101AF00019B1C8F61C700127015027952C3FC8F674
:101B00004227499309B10C7010274F731150279544
:101B10002C3FA8F64695469519B11C7079F001271F
:101B2000015027952C3F98F66B5A60F3315009B15C
:101B3000B0F600C012E01CBB00271CC03B50319522
:101B4000C31BD04012E01CBB0881033C21F10B34C5
:101B500011F120917C051981110F1213EDCF4A81EB
:101B6000441F093679F10D3211F0013E29F74F700B
:101B700009F0042F009385053F915F914F911F91CC
:101B80000F912F916F91CCB3C1FD5DCFDF91CF91BC
:101B9000CFBFCF91189520918505222369F310912D
:101BA0008305112309F049C034300AF448C030934A
:101BB000830520937E0510917F053BE0311B309318
:101BC0007F053DC0009183050130BCF50AE54F70EB
:101BD00049F430911C0134FD33C000931C01C9E568
:101BE000D5E032C0433059F0443091F03091640573
:101BF00034FD26C000936405C5E6D5E025C03091CC
:101C00009D0534FD1DC000939D05CEE9D5E01CC0A7
:101C10003091700534FD14C000937005C1E7D5E024
:101C200013C0052710E000C000000BB91AC005273B
:101C300010E0221F1DC010E021C04AE502C032EDB5
:101C4000432FC4E1D0E032E01AB11C605B9A0BB1C3
:101C50001AB95CE020E865E320FF05270BB927955A
:101C600017951C3FF0F66695B8F7B1F720FF0527EA
:101C70000BB9279517951C3FD0F62795179517FF99
:101C8000052700001C3F0BB9B0F629913A9519F7CA
:101C9000037F10918405110FC651D0400BB911F08C
:101CA00010937C0512E01CBB08601AB1137F402F13
:101CB000437F54E05A95F1F70BB91AB94BB95CCF91
:101CC0000E94EE218F31C8F48091B30190E001961B
:101CD00065E070E00E9462338093B30124E030E05D
:101CE000A901481B590BCA01982F8827990F60E05A
:101CF00072E088599F4F0E9474270E94EE218F3115
:101D000050F00E94EE21883230F460E072E088E604
:101D10009AE00E9474270E94EE218832B0F0209150
:101D2000B20130E02F5F3F4F217033272093B20183
:101D300081E090E0821B930B982F8827990F60E039
:101D400072E08859934F0C9474270895811106C04E
:101D500089EA611101C08AEA0E943E1281E0089579
:101D600082E008950E94EE21882309F444C00E9475
:101D7000B4276091B8017091B9018091BA01909136
:101D8000BB010E94832D693C71058105910560F0BE
:101D90000E94682D6093B8017093B9018093BA01D5
:101DA0009093BB010E94600E0E94682D6093B40165
:101DB0007093B5018093B6019093B70164E080E021
:101DC0000E9475260E94EE211F928F938DE191E073
:101DD0009F938F9385E393E09F938F930E94DA33D1
:101DE0000F900F900F900F900F900F9060E085E391
:101DF00093E00C9458276091B4017091B5018091E3
:101E0000B6019091B7010E94832D613C77428940D1
:101E1000910518F00E94D028D1CF6091B80170913F
:101E2000B9018091BA019091BB010E94832D693C58
:101E300071058105910510F20E94682D6093B8012B
:101E40007093B9018093BA019093BB010E94600E18
:101E5000B5CF81E0089581E008950C942B0F08958B
:101E60000C942F0F1F93CF93DF9300D000D00F92CD
:101E7000CDB7DEB749835A836B833091BC0189812A
:101E80009A8131111DC06623B9F02223A9F00E9466
:101E90009D15182F682F89819A810E9449156981A3
:101EA0007A81812F0F900F900F900F900F90DF91FC
:101EB000CF911F910C941F250E947515182FEFCFFD
:101EC0000E949D1569817A81EDCFFC01262F40810A
:101ED00051816281738184810C94320F81E0089575
:101EE000CF93DF93EC0160E00E94650FBE01DF91AC
:101EF000CF910C94300FE1E0F0E0DF0102C0AA0FB7
:101F0000BB1F6A95E2F7BD01DF0102C0AA0FBB1F2C
:101F10004A95E2F76A2B01C0EE0F2A95EAF7962F51
:101F20009823961302C08E2B0895E0958E23089572
:101F3000242F462F682F8091D2010E947B0F0C9492
:101F400006150E94F61D0E94F3100C94111E0E94AB
:101F500074220C94141E08950E949E140E94AB0FCC
:101F60002FEF84E39CE0215080409040E1F700C0D7
:101F700000000C94C32D0F931F93CF93DF938C011C
:101F800061E00E94650FEC01F8018281882319F05D
:101F9000CE010E941A22B801CE010E946723882335
:101FA000D9F1B801CE010E942D0F8823A9F1B80103
:101FB000CE010E948329882379F1B801CE010E94C5
:101FC000D529882349F1B801CE010E94FF2A882330
:101FD00019F1F8018281882361F0CA35FDE5DF0738
:101FE00021F170F4C115ECE5DE07A1F0CE3DDC4532
:101FF000C9F0C801DF91CF911F910F910C94290F67
:10200000CB358DE5D807A1F0CC35DD4591F70E94A1
:102010006519EFCF0E94AC0F80E0DF91CF911F9147
:102020000F9108950E94DB1AF7CF0E946E19E1CF3D
:102030000E947119DECFDF92EF92FF920F931F93F0
:10204000CF93DF93E82FF0E0E051FE4ED490282F9D
:1020500026952695269530E0F901E057FD4E04912E
:10206000877010E0082E02C0159507950A94E2F7D4
:1020700001701127F901E058FD4EE490F12C082E73
:1020800002C0F594E7940A94E2F791E0E922FF2474
:10209000F901E059FD4EC491D0E002C0D595C79535
:1020A0008A95E2F7C170DD270115110519F081EE5F
:1020B0000E943F11E114F10419F086EE0E943F11D5
:1020C0008D2D0E943E12EF2819F086EE0E94D1114C
:1020D000012B19F081EE0E94D111CD2B51F08CE231
:1020E000DF91CF911F910F91FF90EF90DF900C94B3
:1020F0003E12DF91CF911F910F91FF90EF90DF90F3
:102100000895EF92FF920F931F93CF93DF93EC010B
:10211000162F0AE08881882309F454C0813009F021
:102120004EC08981813099F47E0122E0E20EF11CDB
:102130008A810E943E12E7012196812F815050F33F
:10214000EFE9FFE03197F1F700C00000F7CF8230F0
:1021500041F47E0182E0E80EF11C8A810E943F1169
:10216000EACF833041F47E01E2E0EE0EF11C8A8179
:102170000E94D111E0CF843011F02196DDCF2A8169
:10218000229690E080E0AE014F5F5F4F2053330B0B
:102190002A30310548F0019778F2EFE9FFE03197F6
:1021A000F1F700C00000F7CF089FB001099F700D44
:1021B0001124C901860F971F2981EA01E4CF0E94EB
:1021C0001B10BACFDF91CF911F910F91FF90EF902D
:1021D000089560E00C94811008950C94EC1081E057
:1021E00008950C94EF100895CF93C82F0E94ED101E
:1021F0008C2FCF910C94F110CF93DF93CDB7DEB736
:102200002B970FB6F894DEBF0FBECDBF4F83588714
:1022100069877A878B8761110E9494191E821D82BB
:1022200085E0FE013796DE01119601900D928A95A8
:10223000E1F78C819D81892B89F449815A816B81D9
:102240007C818D819E810E9494182B960FB6F89404
:10225000DEBF0FBECDBFDF91CF91089589819A81F6
:1022600089238F3F51F3CE0101960E946E0F811199
:10227000E4CFEBCFFC01808191810C94CA15CF9300
:10228000C82F882309F48BC08238C1F40E94352CF2
:1022900081FD85C089E30E942E190E94C4192FEF89
:1022A00081EE94E0215080409040E1F700C00000B2
:1022B00089E30E943519CF910C94C4198338A1F495
:1022C0000E94352C80FD6BC083E50E942E190E9470
:1022D000C4192FEF81EE94E0215080409040E1F747
:1022E00000C0000083E5E5CF8438A1F40E94352CBE
:1022F00082FD55C087E40E942E190E94C4192FEF59
:1023000081EE94E0215080409040E1F700C0000051
:1023100087E4CFCF8CEF8C0F813A90F46C2F8091B3
:102320000001909101010E94982C882329F08C2FA4
:102330000E9435190E94C4198C2F0E942E19BBCF00
:1023400080E28C0F883048F4C77081E001C0880FAC
:10235000CA95EAF70E947719AECFEBE5EC0FE330B0
:1023600040F4F0E0EB5AFE4F808190E0CF910C9466
:102370005A2CE8E5EC0FE73150F4F0E0EE0FFF1FC8
:10238000E95DFE4F80819181CF910C94702CC03F0C
:1023900030F08C2F0E94E61FCF910C94B920CF9182
:1023A0000895882309F452C0823871F40E94352CB4
:1023B00081FF4CC089E30E942E190E94C41989E351
:1023C0000E9435190C94C419833859F40E94352C95
:1023D00080FF3CC083E50E942E190E94C41983E54A
:1023E000EFCF843859F40E94352C82FF2FC087E448
:1023F0000E942E190E94C41987E4E2CF9CEF980F27
:10240000913AF0F290E2980F983050F4877091E092
:1024100001C0990F8A95EAF7892F0E947D19D2CFC2
:102420009BE5980F933020F490E080E00C945A2CB8
:1024300098E5980F973120F490E080E00C94702C90
:10244000803F20F00E9440200C94B92008951F93F3
:10245000CF93DF93182FEB010E943F11209731F4A7
:10246000812FDF91CF911F910C94D1118FE99FE0C3
:102470000197F1F700C000002197F0CF6AE070E00B
:10248000893311F460E570E00C942712882321F061
:102490000E9477190C94C4190895882321F00E9492
:1024A0007D190C94C4190895BF92CF92DF92EF92D8
:1024B000FF920F931F93CF93DF936C01D62FC72FFB
:1024C000FC011281058102950F700E944C19E82EC3
:1024D0008823A1F0E12E112389F08C2F807F803496
:1024E00029F080E28D0FE12C883040F082E00E94DC
:1024F000151A0E944C1991E0E82EE926BC2EB294E0
:102500009FE0B922EB2DF0E0E151F94C0C949533AA
:102510000C2F0F70C07F11F00295007F1123A9F0DE
:10252000002359F080E28D0F883010F0D11109C0DE
:10253000802F0E9477190E94C4198D2F0E943F118D
:1025400014C0802F0E948719F6CF8D2F0E94D111C1
:10255000002359F080E28D0F883010F0D1112BC08C
:10256000802F0E947D190E94C419EB2DE850FF0BAB
:10257000349720F40E94352C0E94F410EE2009F4C8
:102580007EC10E94481980FD7AC1F60112820E9424
:1025900042190E941715C6010E9460140E94421938
:1025A000DF91CF911F910F91FF90EF90DF90CF902F
:1025B000BF900C942215802F0E948D19D4CFFC2F30
:1025C000FF70FF2EC07FC03219F0F29480EFF82226
:1025D000DD2369F0D13049F1112391F1002351F14C
:1025E000F601858180FFA9CF8F70858323C01123D9
:1025F00081F0011106C00E94A7198F290E9446127E
:10260000B4CF0130C1F70E94A7198F290E94AD19DC
:10261000ACCF011106C00E94BA198F2D0E944D1235
:10262000A4CF013009F4A1CFF6CF112329F0063051
:1026300008F09BCF8F2DE2CF053008F096CFEDCF7D
:10264000002359F3D93309F002C1FFEF27EE33E03D
:10265000F15020403040E1F700C000008D2F0E9473
:10266000D11183CF8C2F86958695837069F0813048
:1026700009F07BCF8D2F9C2F9370111102C090E039
:1026800080E00E94702C71CF8D2F9C2F93701111C0
:1026900002C090E080E00E945A2C67CF8D2F11235A
:1026A00029F00E94E61F0E94B9205FCF0E944020BF
:1026B000FACF8C2F837079F5111157CF4D2F42959A
:1026C00046954770440F440F8D2F8F70042E01C024
:1026D000880F0A94EAF72D2F2071D4FF07C02FE04E
:1026E00030E001C0220F4A95EAF72095C695C695BD
:1026F000C370822BC23049F058F4C13019F00E94E7
:10270000F81433CF0E94F31430CF0E94FD142DCF64
:102710000E94F1142ACF8695112311F08C2F81701D
:10272000882309F422CF4D2F429546954770440FD8
:10273000440F8D2F8F70042E01C0880F0A94EAF782
:102740002D2F2071D4FF07C02FE030E001C0220FF1
:102750004A95EAF72095C695C695C370822BC2307C
:1027600049F058F4C13019F00E943E15FECE0E9487
:102770003915FBCE0E944315F8CE0E940615F5CE02
:10278000CF70112329F08C2F0E9417158D2F36CF73
:102790008D2F0E944D128C2F0E942215E6CED23F23
:1027A00089F160F4D03FC9F0D13F29F1112309F438
:1027B00042C00111C2CE8C2F8F7121C0D33F39F19D
:1027C000D43FA1F7112369F1CF718C2F0E94171507
:1027D00063E08C2F0E94FA19C8CE112341F0053016
:1027E00008F0C3CE8C2F8F710E942E15BECE0630FE
:1027F00008F0BBCEF7CF8C2F8F71112369F20E94A6
:102800001715B3CE8C2F8F711123C9F3C5CF1123A8
:1028100029F08C2F8F710E940F15A7CE0E940C15E6
:10282000A4CE81E00E94151A023008F49ECE82E008
:102830000E94151A9ACE002379F0D93341F49FEF04
:10284000E7EEF3E09150E040F040E1F705CF8FE391
:102850009CE90197F1F700CF8C2F8F719DCF4C2F02
:102860004F706D2FC6010E94DF1B0E94F8157DCEB0
:102870004C2F4F706D2FC6010E94E21B76CEDF9168
:10288000CF911F910F91FF90EF90DF90CF90BF906D
:1028900008950F931F93CF93DF93EC0168817981A3
:1028A0008A810E94D4158C010E9448150E94F01460
:1028B000B801CE01DF91CF911F910F910C9454126A
:1028C000CF93DF93EC018B819C81892B29F0888148
:1028D000998189238F3F59F4DF91CF910895CE01DB
:1028E0000E944914CE01DF91CF910C94700FCE015C
:1028F0000E94BB0F8111F3CF0E944C19882361F312
:102900008A81882349F382E0DF91CF910C94151AD4
:1029100090E080E00E945A2C90E080E00E94702CB1
:102920000E9494190E94A4190E94C4190E94E021D7
:102930000C94B9200E943C190C9488140E948419AC
:102940000C949A14E92FE295EF70E250EE3070F497
:10295000F0E0E150F94C0C949533803F19F020F4ED
:10296000883E20F481E00895843FE1F380E00895FB
:10297000883EC0F3813FD1F7F5CF93FB882780F9DC
:102980000895FC01808191810E94CA150C94A214C3
:10299000CF93DF9300D000D00F92CDB7DEB70F906A
:1029A0000F900F900F900F90DF91CF910895CF93DC
:1029B000DF9300D000D000D0CDB7DEB726960FB69B
:1029C000F894DEBF0FBECDBFDF91CF91089508957B
:1029D0000C94E7140E94E8148093D3010C9488149B
:1029E00008950C94EA149091D301892B0C94EA1465
:1029F0009091D30189230C94EA149091D3018927F3
:102A00000C94EA140C94E7140C9402150E9404151B
:102A10008093D2010C94881480E00C94061591E008
:102A200001C0990F8A95EAF7892F0C94061521E0C9
:102A300030E001C0220F8A95EAF78091D201822B03
:102A40000C94061521E030E001C0220F8A95EAF7C8
:102A500020958091D20182230C94061521E030E06C
:102A600001C0220F8A95EAF78091D20182270C9447
:102A700006159091D201892B0C9406159091D201E4
:102A800089230C9406159091D20189270C94061580
:102A9000089527E0929F800D1124982F977041E0B0
:102AA00001C0440F9A95EAF786958695869593E03E
:102AB000899FF0011124E354FE4F90E080E070E024
:102AC0005191DF0111979B01082E02C03695279581
:102AD0000A94E2F7217021952527242325272C939A
:102AE00001968330910561F7089527E0929F800D4C
:102AF0001124982F977086958695869523E0829F5E
:102B0000F0011124E354FE4F50E040E080E02191B9
:102B100030E0092E02C0369527950A94E2F721701D
:102B20003327042E01C0220F0A94EAF7822B4F5F4D
:102B30005F4F4330510559F70895CF92DF92FF92CE
:102B40000F931F93CF93DF936C010091D20180917B
:102B5000D301082BC7E0D0E010E0FC2EC8010C2EFA
:102B600002C0959587950A94E2F780FD0CC02197E5
:102B7000A0F7F12C8F2DDF91CF911F910F91FF9036
:102B8000DF90CF900895B6018C2F0E94FE1C019714
:102B900071F3F0CFCF93DF93EC010E949D15BE013E
:102BA000DF91CF910C94FE1C1F93CF93DF93EB0129
:102BB0009091BC01992331F0CB01DF91CF911F910E
:102BC0000C94CA15882379F0CB010E949D15182F0B
:102BD000682FCE010E944915BE01812FDF91CF9150
:102BE0001F910C94FE1CCB010E947515182FF4CF79
:102BF000EF92FF920F931F93CF93DF938C01892B5A
:102C000081F0F12CEE24E394E8012196F8018491FF
:102C1000843770F4843008F05FC08130B1F08230C6
:102C2000A1F1DF91CF911F910F91FF90EF90089547
:102C3000853709F44CC008F43DC09CE7980F9037E5
:102C400080F78F770E94D11149C00E5F1F4FFE01A0
:102C5000849190E2980F983060F48770FE2D01C047
:102C6000FF0F8A95EAF78F2F0E9497190E94C419C7
:102C700002C00E943F118F2D815030F2EFE9FFE03A
:102C80003197F1F700C00000F7CF0E5F1F4FFE0134
:102C9000849190E2980F983050F48770FE2D01C017
:102CA000FF0F8A95EAF78F2F0E949D19DFCF0E94B0
:102CB000D111E1CF0E5F1F4FFE01C491C150D8F278
:102CC0008FE99FE00197F1F700C00000F7CF0E5F9A
:102CD0001F4FFE01F490CFCF0E943F118E01CBCF4A
:102CE0001F93CF93DF93C091D40116E08091D5015B
:102CF0008C1304C0DF91CF911F910895D0E01C9FE9
:102D0000F0011D9FF00D1124EA52FE4F40815181C8
:102D100062817381848195810E94D7142196C77046
:102D2000E5CF409106025091070260910802709130
:102D3000090280910A0290910B020C94D7141F9300
:102D4000CF93DF9380910B02807FA9F480910802DA
:102D5000882389F08091D401C091D5016091060249
:102D600070910702A0910902B0910A02D62FD723D1
:102D700016E0C81304C0DF91CF911F91089590E031
:102D8000109711F0DF3F19F401968770F2CF189F6A
:102D90009001199F300D1124F901EA52FE4F418133
:102DA0004713F2CF40814613EFCF42814111ECCF60
:102DB000438154814A1B5B0B483C510528F78091A5
:102DC0000B028F70806180930B02F901E552FE4F78
:102DD00080818F708061808386E092E00E94601421
:102DE000DF91CF911F910C947016AF92BF92CF924A
:102DF000DF92EF92FF920F931F93CF93DF93CDB7A4
:102E0000DEB761970FB6F894DEBF0FBECDBF8C0161
:102E100085E0F801DE011D9601900D928A95E1F79B
:102E2000F801E28086E0C82E82E0D82E6091090287
:102E300070910A026115710509F45AC19091060258
:102E400020910702892F82238F3F09F451C14081CD
:102E50005181A380B480F0900802F501E61BF70BC6
:102E6000FF2009F4F6C080910B02382F307FE83C38
:102E7000F10508F0AFC0311179C0FE2C251323C035
:102E8000941321C0E1101FC08F70806180930B02EA
:102E90000E949116C6010E94601480910B02F801F5
:102EA00085838F2D61960FB6F894DEBF0FBECDBF20
:102EB000DF91CF911F910F91FF90EF90DF90CF9016
:102EC000BF90AF900895AB2829F0842F85238F3FC2
:102ED00009F027C180E0F82FF170DF2E80FF3CC0A1
:102EE0008091D4012091D50136E0821315C04D8721
:102EF0005E878D859E850E94CA15292F22952F7089
:102F00002230F0F0243018F59F70F1F0F80195812F
:102F1000907FD1F4D12C1EC090E0389FF001399FF2
:102F2000F00D1124EA52FE4F6181651306C06081E5
:102F3000641303C06281E6120FC001968770D5CF7B
:102F40009F7011F0882331F3805E883018F3C80138
:102F50000E946014FD2CA5CFEE2009F4A2CF809131
:102F60000B02816080930B02F12C9BCF251306C0CE
:102F7000941304C0F801EE2009F487C0C8010E9430
:102F8000C114882319F1EE2009F180910B028032DF
:102F900070F0209106023091070238872F8319863E
:102FA000BB86AA868C87CE0107960E94601486E0B5
:102FB000F801A6E0B2E001900D928A95E1F70E9437
:102FC0009F160E949116FF24F3946BCFC8010E94B4
:102FD0006014F9CF311113C07A2DB98AA88A6E2DE9
:102FE00089890E94C81486E092E00E94601486E0FD
:102FF000F60111928A95E9F70E949116B5CF251333
:103000000FC094130DC0E1100BC0F8018583C801F7
:103010000E94601486E0F60111928A95E9F741CF8B
:10302000C8010E94C114882389F2EE2079F28091B0
:103030000B02803208F4BBCF2091060230910702C8
:103040003A8329831B82BD82AC828E83CE01019696
:10305000ACCFE83CF10508F03EC0FE2CEE2009F4B0
:10306000B5CF25132AC0941328C080910B0280FD90
:103070001BC0982F907FC1F0F8018583903F31F0FD
:10308000982F907F905F8F70892B8583C8010E9455
:10309000601486E0F801A6E0B2E001900D928A95F6
:1030A000E1F70E949116FDCE86E0F801A6E0B2E0BD
:1030B00001900D928A95E1F7F4CEC8010E94C114E7
:1030C000811175CF80910B02816080930B02C80142
:1030D0000E946014E6CE7A2DB98AA88A6E2D89895D
:1030E0000E94C81486E0F60111928A95E9F7D9CFBB
:1030F000EE2009F46BCFC8010E94C114F82E88237A
:1031000009F464CF86E0F801A6E0B2E001900D92E8
:103110008A95E1F786E092E00E943A110E949F169C
:10312000C0CF81E08E25D7CE1F93CF93DF93CDB74D
:10313000DEB72C970FB6F894DEBF0FBECDBF4F831E
:10314000588769877A878B879C87CE0107960E946C
:10315000F516882369F08A859B85892B39F04F8184
:103160005885842F85238F3F09F071C016E05FC01A
:1031700086E0FE013796DE01119601900D928A9548
:10318000E1F78A859B85892B89F388859F8189232F
:103190008F3F61F32091D50130E0C901019687701E
:1031A00099274091D4014817190671F40E949E1482
:1031B0001092D5011092D40186E0E6E0F2E0DF0142
:1031C0001D928A95E9F7D2CF96E0929FD001939F06
:1031D000B00D1124AA52BE4FFE01319601900D92FE
:1031E0009A95E1F78093D5010E947016BFCF819F19
:1031F000C00111248A529E4F0E94F5168823E9F0DF
:10320000E091D4011E9FF0011124EA52FE4F40814B
:10321000518162817381848195810E94D71480914C
:10322000D40190E00196877099278093D401809112
:10323000D4019091D5018913DACF2C960FB6F8946A
:10324000DEBF0FBECDBFDF91CF911F91089569857D
:103250007A858B859C850E94D71488CF682F8091B2
:103260000001909101010C94CE2C682F80910001F7
:10327000909101010C94D02C80910001909101015A
:103280000C94D22C80910C02859585958595089596
:1032900080910C028770089590910C02977081E0E4
:1032A00009F480E008959091400392FB222720F9D1
:1032B000281751F080FB92F99093400380913F03CF
:1032C000909140030C94581A08958091400382FB1A
:1032D000882780F991E089270C94531981E00C9498
:1032E000531980E00C94531980911802089590911D
:1032F0001802892B809318020895809590911802E6
:1033000098239093180208951092180208959091AE
:103310001702892B809317020895809590911702C8
:103320009823909317020895109217020895909190
:103330001602892B809316020895809590911602AB
:103340009823909316020895109216020895809182
:103350000D02089508950C94AA199091400392FDCE
:1033600008C090910D02981721F080930D020C94E3
:10337000AB19089580910D02882329F010920D0257
:1033800080E00C94AB190895E0910001F0910101E7
:10339000809118028083E0910001F0910101808109
:1033A00090911702892B8083E0910001F091010137
:1033B000808190911602892B808390910D02992330
:1033C00081F0E0910001F09101018081892B8083DF
:1033D00080910001909101010E94862C81110E9430
:1033E000BA1980910001909101010C94412C08952B
:1033F0000C94F7199091400392FD10C098E0899FBA
:1034000090011124622B60930C020E941715809189
:103410000C028595859585950C94F8190C941715D3
:1034200010920C0280E00C94F81990910C02809597
:10343000892380930C02282F277039F4282F082E17
:10344000000C330B9217130621F49091400392FF66
:1034500007C08595859585950E9422150C94101AB4
:1034600008956FEF7FEF90E080E00C94A03690E03D
:1034700080E00E947C36893E9E4F11F40C9410230C
:1034800080E0089582E090E00C94743683E090E050
:103490000C947436CF9384E090E00E947436C82F69
:1034A00082E290E00E947436982F8C2FCF9108957D
:1034B000CF93C92F682F84E090E00E9482366C2F52
:1034C00082E290E0CF910C948236AB01BC018FE098
:1034D00090E00C949436AB01BC0183E190E00C9435
:1034E000943660E070E0CB010C946B1A60E070E001
:1034F000CB010E94651A0C94711A69EE7EEF90E080
:1035000080E00E94A03660E082E090E00E94823677
:1035100060E083E090E00E9482361092D30160E088
:1035200084E090E00E94823660E082E290E00E94B7
:10353000823660E085E090E00E94823660E086E0BE
:1035400090E00E9482366FEF87E090E00E94823622
:1035500040E050E0BA0188E090E00E94943660E0DC
:103560008DE090E00E94823640E050E0BA0188E1B0
:1035700090E00E94943660E087E190E00E948236FD
:1035800040E050E0BA018CE190E00E94943670E097
:1035900060E080E290E00E94A03640E050E0BA0196
:1035A00088E190E00E94943680E00E9429230E94E6
:1035B0004F230C94761A0C947D1A682F8EE090E0BD
:1035C0000C9482360E94682D6093290270932A021F
:1035D00080932B0290932C02609325027093260215
:1035E000809327029093280208950E94682D60938B
:1035F000290270932A0280932B0290932C026093ED
:103600002102709322028093230290932402089552
:10361000089508950C94081B08950C940C1B8CEDD0
:103620009DE10E94D82D0E94091B0C940A1B81E089
:1036300008950C94171B089508950E941B1B0C9469
:103640001C1B0E94532D0E945E230E94C71E80E017
:103650000E942F260E94B8220C940D1B8F929F92DD
:10366000AF92BF92CF92DF92EF92FF920F931F9390
:10367000CF93DF93CDB7DEB72A970FB6F894DEBFAE
:103680000FBECDBF0E94D81E982E81110E94E21A53
:103690008AE1A82E82E0B82E10E000E0802E802F74
:1036A0000E94161EE82EF501C1905F01C81609F4AC
:1036B0005CC080912D0281FD0E941C1ED12CFF2434
:1036C000F394CE248C2D8F2109F44AC00E94191B3B
:1036D000882399F0DE828F82EF2081E009F480E078
:1036E00088870E945C2D8160782F9A8789874E8118
:1036F0005F8168858A850E94FC10F801E65EFD4FB7
:103700008081F826F0820E94C822182F81110E9421
:10371000F51A0E94EB28911001C011110E94B427E4
:103720000E94D4200E94352C909119028917A1F192
:103730000E94352C809319022A960FB6F894DEBFAA
:103740000FBECDBFDF91CF911F910F91FF90EF90F2
:10375000DF90CF90BF90AF909F908F900C94F4101B
:10376000D394FF0CF7E0DF12ADCF0F5F1F4F073090
:10377000110509F093CF8FEF89838A831B820E9402
:103780005C2D8160782F9D838C8349815A816B8168
:103790008D810E94FC10B7CF2A960FB6F894DEBF39
:1037A0000FBECDBFDF91CF911F910F91FF90EF9092
:1037B000DF90CF90BF90AF909F908F90089590E052
:1037C00080E008950895FC01EE0FFF1FE056FD4EC6
:1037D000859194910895CF93DF930E94021DEC018F
:1037E000811520E5920708F042C0811530E4930767
:1037F00008F0BDC0883E910528F5803E910508F08F
:103800009DC0883A910588F4853A910508F08FC0EB
:103810008130910509F492C0009709F48FC0049794
:1038200008F08CC0D0E0C0E089C08F3B910508F45F
:1038300089C0805C9109C03CD105A0F30E94E31BC4
:10384000EC017CC08115904250F4C11581E0D8078D
:1038500008F074C0C03FD10528F3D0656FC0C11512
:1038600090E3D90708F079C0CE019F70E7CF8115AA
:1038700025E5920758F5811534E5930708F0A6C0B1
:10388000811542E5940750F4C11581E5D80708F485
:1038900071C0DC2FCC27C16FD06A50C0982F96958D
:1038A00096959E0123703327C115D34508F07FC03C
:1038B000C1E0D0E002C0CC0FDD1F2A95E2F720E284
:1038C000929FC0011124C82BD92B6FC0C11589E567
:1038D000D807A8F4C11598E5D90708F07CC0C11530
:1038E00026E5D20708F09ECF8C2F0E94991DC82F85
:1038F000D0E0DC2FCC27CC27DF71D0621FC0C115F0
:103900003AE5D30708F46CC0CE0190568115904279
:1039100008F088CF8D2F8F710E94991D90E0982F0D
:10392000882788279F719C012C2BE901E6CFC55A77
:10393000D0E0CA57DE4FC881D0E0D064CE01DF911D
:10394000CF910895C85AD0E0CC0FDD1FC85ADE4F82
:103950000990D881C02DD464F1CFCE019927D3FF2F
:1039600003C0EC01D86CEACFEC01D06CE7CFDF707C
:10397000D06AE4CFCE01E4E096958795EA95E1F729
:1039800083702C2F26952695237090E2299F900115
:103990001124382B8C2F8370C1E0D0E002C0CC0FF3
:1039A000DD1F8A95E2F7C22BD32BDC68C7CFC1E0BD
:1039B000D0E002C0CC0FDD1F2A95E2F730E2939FE2
:1039C000C0011124C82BD92BDA68B8CFD82FCC2747
:1039D000C46FD06AB3CFDC2FCC27C06FD06AAECF14
:1039E0008C2F8F700E94991D34E0D695C7953A951B
:1039F000E1F7CF709C2FEC01D069A0CF0E941F256A
:103A00000C94EB1B82389105B1F1B0F48133910530
:103A100009F475C048F48932910509F469C08A3205
:103A2000910509F473C008958533910509F459C0CF
:103A30008933910501F10895833E9105A9F138F488
:103A4000803E9105F9F0823E910549F10895863E48
:103A50009105A9F1873E9105C9F1843E910519F5BB
:103A60002091400321FF1FC080913F0384FD14C0BB
:103A700087EE90E0089520913F032370A1F080EE3F
:103A800090E0089520913F0320FD47C0309140030E
:103A900030FF09C024FF44C090E080E004C02091C2
:103AA0003F0322FDF7CF089520913F0322FD3BC045
:103AB0003091400330FDE3CF24FFF5CFEDCF2091CF
:103AC0003F0323FFF0CF24FDE7CFD2CF20913F0368
:103AD00023FD2CC03091400331FFEECF84EE90E007
:103AE000089520913F0325FFDECF89E290E00895FD
:103AF00020913F0325FFD7CF85E390E008952091E3
:103B00003F0326FFD0CF8AE290E0089520913F0343
:103B100026FFC9CF81E390E0089589E390E00895FE
:103B200083EE90E0089582EE90E0089586EE90E0B6
:103B3000089590913F0392FF06C0282F28712830E6
:103B4000F9F4877F846093FF06C0282F28712831FD
:103B5000F1F4877E84612091400320FF06C0382F56
:103B600038713830D9F4877F816021FF06C0282F53
:103B700028712831D1F4877E816194FD877E089574
:103B8000282F24712430F9F68B7F8860DCCF282F12
:103B90002471243101F78B7E8861DDCF382F31719C
:103BA000313019F78E7F8860E0CF282F21712131C5
:103BB00021F78E7E8861E1CF80E008950C94311A60
:103BC0000E94D81E8FE39CE90197F1F700C0000026
:103BD0000E94D81E80E00E94161E80FF04C00E9432
:103BE000DE1D0C94C32D08950C94E01D0E94371A1D
:103BF000811102C00E94DB1A0E94421A80932D029A
:103C00000E944A1A9093400380933F030E94F41D40
:103C10000E94461A0E94F1148091D2010C9404155E
:103C200008950C94101E08950C94131EE82FF0E0D4
:103C3000E85BFC4F80810895089580EA8A95F1F74A
:103C4000089500C008950C941D1EF894E82FE29585
:103C5000EF70F0E031A1282F2F7081E090E001C0DB
:103C6000880F2A95EAF7982F9095932391A392A114
:103C7000892B82A3789408950F931F93CF93DF939A
:103C8000C0E9D1E089918F3F11F00E94251E81E0AB
:103C9000C739D807B9F7C9E8D1E000E911E089913F
:103CA0008F3F11F00E94251E0C171D07C1F7DF91F1
:103CB000CF911F910F910895CF92DF92EF92FF92D3
:103CC0000F931F93CF93DF93EC01D62E062F10E0B6
:103CD000C80180579E4F7C01FC0180818F3F09F411
:103CE0004BC0F894E82FE295EF70F0E091A18F704F
:103CF00021E030E001C0220F8A95EAF7892F822B5C
:103D000081A382A12095282322A378940E94211EBA
:103D1000E9E8F1E030E020E0C12C51E041914F3F73
:103D2000A1F1A42FA295AF70B0E090968C9190E095
:103D30004F7002C0959587954A95E2F780FD25C0A2
:103D4000852F022E01C0880F0A94EAF7C82A2F5F38
:103D50003F4F2730310511F7F70180818F3F11F078
:103D60000E94251E61E0C11001C060E08D2D0E94FF
:103D7000231EC00FD11FC882DF91CF911F910F91D9
:103D8000FF90EF90DF90CF90089580E0DFCF0E940A
:103D90003C1EE1E4F3E0A8E4B3E011921D9283E05D
:103DA000E834F807D1F787E00E94211F0C94A10F97
:103DB000FF920F931F93CF93DF9300D000D000D0DA
:103DC0000F92CDB7DEB78E010F5F1F4F87E0F8016E
:103DD00011928A95E9F7F12C6F2DC8010E945C1EA3
:103DE000F394F7E0FF12F8CF47E050E0B80181E428
:103DF00093E00E94CD33FF24F394009709F4F12C53
:103E0000892B41F087E0F801A1E4B3E001900D9225
:103E10008A95E1F72F2D47E068E473E081E493E0B1
:103E20000E94221F0E94A70F8F2D27960FB6F8948D
:103E3000DEBF0FBECDBFDF91CF911F910F91FF90DD
:103E400008950895FF920F931F93CF93DF93F82E59
:103E5000092F162FD72FC42F222349F081E08093FA
:103E600030020E945C2D90932F0280932E0280914D
:103E700030028823A1F080912E0290912F020E949F
:103E8000742D059760F0EF2DF02FA12FBD2FCE0FD1
:103E9000DF2FD11DEC17FD0741F410923002DF91A6
:103EA000CF911F910F91FF90089581918D93F2CF43
:103EB0000E94D92C0E94DD2D0E94EE2D0E940E2E14
:103EC0000E941D1BFBCF8091370280FF12C06091C2
:103ED000070185E0689FB001112475956795759578
:103EE000679560387105A8F561157105A1F1862FF8
:103EF000089581FF09C06091070185E0689FB001C6
:103F0000112475956795EDCF6091070182FD0AC078
:103F1000809136028823D1F09091060160910701CB
:103F2000891728F085E0689FB0011124DACF869FB9
:103F3000B001112485E0869F9001879F300D1124E8
:103F4000692F70E0C9010E946233CBCF65E070E059
:103F5000CECF8FE7089581E008958091370280FFEA
:103F60000CC06091030170E0759567957595679534
:103F70006115710549F1862F089581FF06C0609192
:103F8000030170E075956795F3CF6091030182FDA1
:103F90000BC0909135029923A1F0609102018091AC
:103FA0000301961738F0682F70E06038710500F350
:103FB0008FE70895899FC001112470E00E94623349
:103FC000F4CF61E070E0D7CF81E00895803F31F415
:103FD0000E94631F819580933B020895813F19F4ED
:103FE0000E94631FF8CF823F31F40E94631F8195C6
:103FF00080933A020895833F19F40E94631FF8CF1B
:10400000893F29F40E94AD1F80933C0208958A3FA6
:1040100021F40E94AD1F8195F7CF8B3F31F40E94B0
:10402000AD1F819580933D0208958C3F19F40E9445
:10403000AD1FF8CF9CE0980F953070F4845F990B1A
:1040400021E030E001C0220F8A95EAF78091390221
:10405000822B8093390208958D3F31F4809137028D
:1040600081608093370208958E3F21F4809137025A
:104070008260F7CF8F3FB9F7809137028460F1CF2C
:1040800040913A02803F59F480913B0287FF0DC076
:1040900010923B0241110BC01092360208C0813FC2
:1040A00081F480913B0218169CF3442381F08091A7
:1040B0003C0290913D02892B09F05AC010923502C2
:1040C0000895823F49F447FFF0CF10923A02809161
:1040D0003B028111ECCFE0CF833F19F41416ACF30F
:1040E000E4CF90913C02893F29F41916F4F610921E
:1040F0003C02DBCF8A3F19F497FFD7CFF8CF9091DE
:104100003D028B3F29F497FFD0CF10923D02CDCFD7
:104110008C3F19F41916CCF3C8CF9CE0980F95305A
:1041200090F4845F990B21E030E0B90102C0660F82
:10413000771F8A95E2F7CB01809590913902892308
:1041400080933902B2CF8D3F31F4809137028E7F58
:1041500080933702AACF8E3F21F4809137028D7F62
:10416000F7CF8F3F09F0A1CF809137028B7FF0CF3F
:1041700008950E945C2D9C0190913A0280913B022F
:10418000982B21F0309334022093330290913C021B
:1041900080913D02982B21F030933202209331021E
:1041A00088E392E00C944C2CEF92FF920F931F93B4
:1041B000CF93DF9300D000D000D0CDB7DEB786E03C
:1041C000E8E3F2E0DE01119601900D928A95E1F7A5
:1041D000E0903A02F0903B0200913C0210913D02C7
:1041E00010923A0210923B0210923C0210923D0251
:1041F0008E2D8F2991F080913302909134020E948C
:10420000742DAC0190913602992309F43FC080913E
:1042100008018417150608F447C0802F812B91F000
:1042200080913102909132020E94742DAC019091E4
:104230003502992309F477C080910401841715068B
:1042400008F47FC080913A0290913B02892B9091B3
:104250003C02892B90913D02892B11F00E94B920DC
:1042600086E0FE013196A8E3B2E001900D928A95B6
:10427000E1F726960FB6F894DEBF0FBECDBFDF91F3
:10428000CF911F910F91FF90EF9008952091090118
:104290008AE0289F900111242417350708F0BDCF2C
:1042A0009F5F9093360202C09F3FD1F7EE2059F0F6
:1042B0000E94631F9FEF1E140CF491E0899F802DD4
:1042C000112480933A02FF2059F00E94631F9FEF50
:1042D0001F140CF491E0899F802D112480933B02E0
:1042E00030913A02332309F498CF20913B022223E4
:1042F00009F493CF45EB3403C0011124992359F0FD
:1043000090933A0245EB240390011124332339F0B2
:1043100030933B0282CF81E080933A02F3CF81E079
:1043200080933B027ACF209105018AE0289F90017B
:1043300011242417350708F085CF9F5F909335022D
:1043400002C09F3FD1F7002359F00E94AD1F9FEF9D
:1043500010160CF491E0899F802D112480933C026B
:10436000112359F00E94AD1F9FEF11160CF491E03C
:10437000899F802D112480933D0230913C0233238C
:1043800009F460CF20913D02222309F45BCF45EB75
:104390003403C0011124992359F090933C0245EB5A
:1043A000240390011124332339F030933D024ACF86
:1043B00081E080933C02F3CF81E080933D0242CFC5
:1043C00086E0E8E3F2E0DF011D928A95E9F71092BA
:1043D0003602109235021092370208958091400201
:1043E00008959C013056211540E2340748F0305EB4
:1043F000211540E1340720F0315C21153F4178F46C
:1044000099279C01245031092432310578F0275234
:10441000310981E02E30310550F080E008958F3F62
:10442000910579F370F390E080E0EBCF81E008959F
:104430000C94F121CF92DF92EF92FF92CF93DF9312
:104440000E941822882309F448C080913E0290916E
:104450003F020097E1F10E94742D9C0150E040E082
:1044600060E67AEE80E090E00E947633CA01B901FE
:1044700025E030E040E050E00E9476336091400259
:104480002F3F310519F010F02FEF30E0C62FD0E0AC
:104490002C1B3D0BB90190E080E00E94063227EA18
:1044A00039E747E45DE30E94D5320E94C0316B01D9
:1044B0007C01BE01DD0F880B990B0E940832A70119
:1044C00096010E9454310E94D731609340020E94AD
:1044D0005C2D90933F0280933E02DF91CF91FF903D
:1044E000EF90DF90CF900895CF92DF92EF92FF92FE
:1044F000CF93DF9380913E0290913F020E94742DF2
:10450000893E934060F160914002C62FD0E066275B
:1045100077276C1B7D0B072E000C880B990B0E94D4
:10452000083227EA39E747E45DE30E94D5326B01A0
:104530007C01BE01DD0F880B990B0E9408329B01A4
:10454000AC01C701B6010E9454310E94D73160937B
:1045500040020E945C2D90933F0280933E02DF91C7
:10456000CF91FF90EF90DF90CF9008950C94A60E1E
:1045700024982C9A25982D9A83B1829581701D9943
:1045800005C090E0892B80934302089592E0FACF12
:10459000E0914302EE0FEE0FE093430243B144FB80
:1045A000882780F943B145FB222720F945FF02C047
:1045B00022E030E0822BE82BE0934302EF70F0E042
:1045C000E956FE4F808190914202890F809342020A
:1045D00020E0843054F0809141028F5F809341024B
:1045E00060E080E00E94B62221E0809142028D3F8F
:1045F00054F48091410281508093410261E080E057
:104600000E94B62221E080914202082E000C990BF4
:1046100064E070E00E94623380934202822F08952A
:1046200083E290E00E947436813289F484E290E063
:104630000E947436803159F485E290E00E9474360D
:1046400091E0833209F090E0892F8170089580E035
:10465000FCCFCF93C82F6FEF811161E283E290E02E
:104660000E9482366FEFC11160E184E290E00E9407
:1046700082366FEFC11163E285E290E0CF910C9436
:104680008236089586E290E00E947436682F70E0CA
:1046900090E080E0089586E290E00C94823680E01D
:1046A0000E94292360E070E0CB010E944B230E940E
:1046B00097240E94832581E00C9429230E944123A2
:1046C0000E941023811102C00C944F230895CF93B0
:1046D000FB01C281CC2309F19C0122513F452031CD
:1046E000310520F582510E949325C0E08C2FCF9197
:1046F000089581E00E94171543E062E081E00E9486
:10470000980FF3CF81E00E94221543E062E081E040
:104710000E94980FEBCF82E0F6CF8031FFE59F0734
:1047200089F381319F45B9F3C1E0E0CF8031EFE5F6
:104730009E07F9F281319F45C9F682E0DBCF2FEF6A
:10474000FC0120830895EF92FF920F931F93CF9364
:10475000DF93EC01062FE881E150E33108F05EC001
:10476000F0E0E35FF84C0C949533198289E08A837A
:10477000602FCE01DF91CF911F910F91FF90EF90AD
:104780000C94002F8981823069F0833071F0813080
:10479000D9F40E94682D0E949B336A837B838C83AB
:1047A0009D83E6CF0E944223F6CF7E0182E0E80E91
:1047B000F11C10E0812F0E94161EF70181937F01EA
:1047C0001F5F1730B9F7D4CF602FCE010E949F230F
:1047D000CFCF89818230C1F76A817B818C819D81B5
:1047E0000E949B330E944B23C3CF4B816A818981F6
:1047F0000E9469249827892798279D838C83B8CFA6
:104800002C813D813227232732274B816A81898180
:104810000E948224ADCF0E949724AACF8FEF888375
:10482000A7CF0E942C258983A3CF0E942E259827ED
:10483000892798279A8389839BCF6B8170E0898130
:104840009A81AE014C5F5F4F9827892798270E9475
:1048500031258ECF6B8170E089819A81AE014C5FEA
:104860005F4F9827892798270E94582581CF0E945B
:1048700083257ECF0E945724D6CF6B8170E089813B
:104880009A81AE014C5F5F4F9827892798270E9435
:10489000CF246ECF6B8170E089819A81AE014C5F2D
:1048A0005F4F9827892798270E94F52461CF84E0DD
:1048B000089550E0440F551F9EE0699F400D511D23
:1048C000112492E6899F400D511D1124CA0187963B
:1048D00008950F931F93CF93DF930E9459248C0167
:1048E0000E947436C82FD0E0DC2FCC27C801019677
:1048F0000E9474369E01282BC901DF91CF911F9130
:104900000F9108950F931F93CF93DF93122F032FCF
:104910000E945924EC01602F0E948236612FCE0143
:104920000196DF91CF911F910F910C948236AF9237
:10493000BF92CF92DF92EF92FF921F93CF93DF93BC
:1049400088E6C82E80E1D82ED0E07601C0E014C001
:10495000F50125913491412F6C2F8D2F0E948224D7
:1049600082E0A80EB11C1F5F173091F78EE0E80EB1
:10497000F11CCF5FC73019F0570110E0E9CFDF5FBE
:1049800082E6C80ED11CD43001F7DF91CF911F9180
:10499000FF90EF90DF90CF90BF90AF900895EF928F
:1049A000FF920F931F93CF93DF93EC018A017C0159
:1049B000E60EF71ECE018796CE15DF0539F4DF919E
:1049C000CF911F910F91FF90EF900895C83821E08B
:1049D000D20740F40E947436F80180830F5F1F4FA6
:1049E0002196E8CFF8011082F9CFCF92DF92EF92B3
:1049F000FF920F931F93CF93DF937C016A018C0189
:104A0000060F171FEC01CE018796C017D10749F496
:104A1000DF91CF911F910F91FF90EF90DF90CF909A
:104A20000895C83821E0D20740F4FE01EE19FF09CD
:104A3000EC0DFD1D60810E9482362196E4CF462F49
:104A4000843038F4773028F4673018F4672F0C94EA
:104A5000692490E080E0089580E1089581E592E086
:104A60000895EF92FF920F931F93CF93DF93EC0182
:104A70008A017C01E60EF71ECE0181559E4FCE15B0
:104A8000DF0539F4DF91CF911F910F91FF90EF90E7
:104A90000895C13522E0D20740F40E947436F8012F
:104AA00080830F5F1F4F2196E7CFF8011082F9CF67
:104AB000CF92DF92EF92FF920F931F93CF93DF93EA
:104AC0007C016A018C01060F171FEC01CE01815594
:104AD0009E4FC017D10749F4DF91CF911F910F91DD
:104AE000FF90EF90DF90CF900895C13522E0D2077C
:104AF00040F4FE01EE19FF09EC0DFD1D60810E94DE
:104B000082362196E3CFCF93DF93CFEAD1E060E006
:104B1000CE010E9482362196C11584E0D807B9F7EC
:104B2000DF91CF910895DF92EF92FF920F931F9341
:104B3000CF93DF9300D000D0CDB7DEB7F82E8FE053
:104B40008F1540F08FEF93E00E9474360FEA11E06A
:104B50008823C1F00F900F900F900F90DF91CF91AD
:104B60001F910F91FF90EF90DF900895011584E061
:104B7000180781F3C8010E947436811101C0FA94AC
:104B80000F5F1F4FF110F2CF19821A821B821C8215
:104B9000DD24D39478018FEFE81AF80AC8010E9447
:104BA000743689831A828823A9F29FEF980F933075
:104BB00078F48A83D9820E5F1F4FC7010E94743632
:104BC0008B83882339F2CE0101960E94E910E2CF4F
:104BD0008701F9CFCF92DF92EF92FF920F931F934D
:104BE000CF93DF936C017B0164E670E088E70E945D
:104BF0002F2BEC0197FD12C010E000E0F601E00F52
:104C0000F11F849164E670E00E94A92BEC01892BCE
:104C100029F40F5F1F4F0E151F0581F70E942C2CE2
:104C2000CE01DF91CF911F910F91FF90EF90DF9018
:104C3000CF900895EFE4F3E080E092E0DF019C0183
:104C40001D9221503040E1F7F0935405E093530555
:104C50008FEF9FEF9093700280936F0208950E94F0
:104C6000B00E80936B0280FD0FC080E880936A02D3
:104C70000E94292B6DE070E087EB92E10E94EA250B
:104C8000892B21F080E0089580E2F0CF80916B02C3
:104C900063E070E081FD26C084EB92E10E94EA258A
:104CA000892B81F76DE070E084EA92E10E94EA25A9
:104CB000892B41F70E94682D605A75418F4F9F4F95
:104CC00060934F0570935005809351059093520562
:104CD0000E941A2681E080936E0280936D021092EA
:104CE0006C02089581EB92E1D9CF20916A0236E0FF
:104CF000839FC0011124629F800D911D1124811595
:104D000022E0920714F090E080E0815B9C4F90934A
:104D1000540580935305089520915305309154050F
:104D20002954334040916A02642F70E0C9010E9407
:104D30004E33481B463010F4240F311D211582E0FC
:104D4000380710F030E020E0215B3C4F30935405F1
:104D50002093530508951F93CF93DF93162F8A3026
:104D600031F481E0DF91CF911F910C9425278D3094
:104D700011F480E0F7CFC0915305D091540596E02F
:104D8000FE01A4E4B2E001900D929A95E1F7803E15
:104D9000C8F086E0FE0111928A95E9F711111EC054
:104DA000C0915305D091540546E050E0BE0184E423
:104DB00092E00E94CD33892BF9F4DF91CF911F91BE
:104DC0000C948C26F6E08F9FB00111246C537D4E1D
:104DD00046E050E0CE010E94C433E0CFE09153059D
:104DE000F09154059F012A5F3F4F2E173F07C1F2F4
:104DF000808180958193F9CFCF54D340CE0125E0B7
:104E0000969587952A95E1F721E030E0A90102C047
:104E1000440F551F8A95E2F7CA0140916F025091E5
:104E20007002842B952B259645E0D695C7954A951B
:104E3000E1F702C0220F331FCA95E2F7822B932BB2
:104E40009093700280936F02B8CFCF93382FE09188
:104E50005305F0915405EF54F34020916A02622FFC
:104E600070E0CF010E944E33281B822F332369F05C
:104E700066E00E944233C82FC15010F4CF910895CC
:104E800060E080E20E94AB26F7CF9F01280F311D22
:104E90002115324018F080E0F0E0E0E08E0F9F2F07
:104EA000911D815B9C4F9093540580935305E6CFF1
:104EB000FF920F931F93CF93DF93EC01F62EFC012B
:104EC00001900020E9F78F0101501109C017D107A7
:104ED00030F0DF91CF911F910F91FF9008956F2DCA
:104EE00089910E94AB26F2CFCF93DF932091530597
:104EF000309154052F543340A901460F571F4130BC
:104F0000524020F060E072E0621B730B40916F0230
:104F100050917002FC01C901620F731FC1E0D0E023
:104F20008617970738F05093700240936F02DF9115
:104F3000CF9108952491DC01A15BBC4F3C913217C5
:104F400081F02C939C01A5E036952795AA95E1F771
:104F5000DE0102C0AA0FBB1F2A95E2F79D014A2B72
:104F6000532B01963196DCCF80916E02811103C0E4
:104F700080916D0208950E94682D605A75418F4F8F
:104F80009F4F60934F057093500580935105909308
:104F9000520580916D028111EBCF62E070E082EAF0
:104FA00092E10E94EA25892B19F781E080936D0236
:104FB000DFCF2F923F925F926F927F928F929F925C
:104FC000AF92BF92CF92DF92EF92FF920F931F9317
:104FD000CF93DF9380916E02882369F020916F0256
:104FE000309170022115310531F080916C0261E041
:104FF00070E0882399F0DF91CF911F910F91FF907E
:10500000EF90DF90CF90BF90AF909F908F907F9068
:105010006F905F903F902F9008958F5F082F10E062
:105020001B01082E02C0220C331C0A94E2F7A901CE
:1050300042215321452B89F390916B0290FD44C08E
:105040008295880F807680930C019801369527957C
:105050003695279520930F01815E80930D01109264
:10506000100124E630E047E050E06AE071E088E7B4
:105070000E94D82B892B09F0BECFA80125E0440F50
:10508000551F2A95E1F780916B0280FD2BC0415B93
:105090005C4F04E610E020E230E060E488E70E9424
:1050A000FF2B892B09F0A7CF0E94B427E101C095FF
:1050B000D09580916F0290917002C823D923D0932C
:1050C0007002C0936F0297CF880F880F880F80936C
:1050D0000C0110920F01895F80930D0183E0809392
:1050E0001001BFCFEAE4F2E080E2DF011D928A9571
:1050F000E9F7ABEAB1E007EA11E08FEAC82E81E0F8
:10510000D82E97E0592E772473948D91E801299138
:105110008E01240F352F311D215B3C4FE82FF0E02D
:10512000E65BFD4F90E080E0652C681A872C082E26
:1051300001C0880C0A94EAF77901A12CE701B99023
:105140007E01B820662D6A196770962E062E000C17
:10515000770BDB2D01C0DD0F9A94EAF7719561950D
:1051600071096770772701C0B6946A95EAF7BD2A7E
:105170006081962E9B289082A39468E0A612DECFD1
:10518000019631968830910579F6CA16DB0609F04A
:10519000BCCF04E610E020E230E04AE452E07DCFEC
:1051A00080916D0290916E02911103C091E0892768
:1051B0000895882369F062E070E080EA92E10E943D
:1051C000EA25892B19F080916D02089510926D02E5
:1051D00080916D02EBCF0F931F9380916E02882315
:1051E00019F160E080E00E9475260E94B20E0E94D4
:1051F000D92780916D028823B9F00E94682D009113
:105200004F05109150052091510530915205601BBA
:10521000710B820B930B6F3F7F4F8F4F9F4720F493
:105220001F910F910C94D0281F910F9108950F9307
:105230001F93CF93DF93C42FD22FFC018281882349
:10524000C9F0409373020E945C2D90937202809388
:10525000710280E28C0F883008F050C0C77081E086
:1052600001C0880FCA95EAF7DF91CF911F910F9186
:105270000C94461210917302141335C08091710280
:10528000909172020E94742D883C910560F5C0E2F5
:10529000CD0F1D17B9F080E2810F883040F41770F0
:1052A00081E001C0880F1A95EAF70E944D12C830BC
:1052B00048F481E09D2F977001C0880F9A95EAF716
:1052C0000E944612802F0E943E12C830B8F4D77058
:1052D00081E001C0880FDA95EAF7DF91CF911F9145
:1052E0000F910C944D1280E28C0F883038F4C77007
:1052F00081E001C0880FCA95EAF7EFCFDF91CF9127
:105300001F910F9108950F939C01CB01233F4CE512
:10531000340759F1A8F4283DFCE53F0701F1293D88
:105320004CE53407D1F1273D3C4591F406E221EEEE
:1053300041EE67ED7CE50E94172980E00F9108950A
:10534000253FFCE53F07E9F0B0F0263F3C45F9F08A
:10535000FC018281882339F110927302EFCF07E2BA
:1053600025EE45EE68ED7CE5E6CF06E221EE40EE67
:1053700063EF7CE5E0CF07E225EE44EE64EF7CE5E9
:10538000DACF06E221EE42EE65EF7CE5D4CF07E20C
:1053900025EE46EE66EF7CE5CECF08E221E045EE55
:1053A00069ED7CE5C8CF81E0C9CFCF93DF93EC01F5
:1053B000FB018281882309F420C1C330FDE5DF07AA
:1053C000C8F5CA3F9CE5D90730F49E0122503C4500
:1053D0002431310598F50E944A1A90934003809336
:1053E0003F03C031FCE5DF0709F4E0C008F061C00D
:1053F000C8309CE5D90709F4CBC088F5C430FCE57A
:10540000DF0709F4B3C0E8F4C2309CE5D90709F41A
:10541000A7C080913F038260C330DC4509F4A3C07C
:1054200080913F03909140030E94581A0E949E145D
:1054300080E004C0C136EDE5DE0769F2DF91CF916F
:10544000089580913F038061C630FCE5DF0709F4D1
:105450008AC008F48FC080913F03806284C080912D
:105460003F038D7FCC309CE5D90709F47CC070F4F4
:1054700080913F038C60CA30FCE5DF0709F473C0FC
:1054800008F48AC080913F038E7F6DC080913F03F6
:10549000877FCE309CE5D90709F465C080913F0332
:1054A0008B7FCF30DC4508F45EC080913F038F7E58
:1054B0005AC0CC3FFCE5DF0709F474C040F5C431A5
:1054C0009CE5D90709F48AC058F4C231FCE5DF072E
:1054D00009F474C008F46EC080913F03837F43C019
:1054E000CA3F9CE5D90709F449C008F04DC0C53151
:1054F000DC4509F095CF80913F0382FB992790F915
:1055000021E0922790FB82F990FB83F92CC0C11512
:105510008DE5D80709F458C088F480914003836072
:10552000CE3FECE5DE0769F1809140038D7FCF3FF0
:10553000DC4538F1809140038C7F23C0C2308DE57B
:10554000D80709F458C008F452C0C136DD4509F047
:1055500067CF90913F03892F8F7E94FF806103C0B6
:1055600080913F03816080933F035ACF80913F0336
:105570008460F9CF80913F038860F5CF809140032C
:105580008160809340034CCF809140038260F9CFCB
:1055900080913F038064E7CF0E949E1480913F0377
:1055A0008068E1CF809140038E7FEBCF80913F03F5
:1055B0008F7DD9CF80913F038F7BD5CF0E949E14E2
:1055C00080913F038F77CFCF80914003982F9095A4
:1055D00091708E7F892B90FB81F9D3CF0E949E140E
:1055E00090913F03892F97FB87F98058BCCF81E0CA
:1055F0000E94DD1A15CF80E0FBCF81E01FCFCF9353
:10560000DF93EB0186319C4511F50E9474199A8154
:10561000992399F08A7A91E009F490E090937402CA
:10562000811109C089E20E942E190E94C41980E0EC
:10563000DF91CF91089585E3F6CF809174028111B7
:1056400004C089E20E943519F0CF85E3FBCF81E0E9
:10565000EFCF1092B9008CE08093B80008959F922C
:10566000AF92BF92CF92DF92EF92FF920F931F9370
:10567000CF93DF93B82EEB010E945C2D6C01EE24DA
:10568000E394F12CC431D10560F025E0E22EF12C39
:10569000CF3FDC0731F0CE0164E170E00E944E3371
:1056A0007B0184EAA82E94E8992E1092BC00A09267
:1056B000BC000E945C2D8C018091BC0087FF0DC056
:1056C0008091B900887F883039F18091B900887F56
:1056D000803111F10FEF1FEF09C00E945C2D801B7C
:1056E000910B8E159F0540F30EEF1FEFCF3FDC07A8
:1056F000E1F2C6010E94742D8C179D07B0F2C8011B
:10570000DF91CF911F910F91FF90EF90DF90CF909D
:10571000BF90AF909F900895B092BB009092BC0054
:105720000E945C2D8C018091BC0087FF0AC0809193
:10573000B900887F883111F0803461F610E000E014
:10574000DECF0E945C2D801B910B8E159F0558F3B8
:10575000CBCF0F931F93CF93DF93EB018093BB00CD
:1057600084E88093BC000E945C2D8C018091BC0079
:1057700087FF11C02091B900287F81E090E0283296
:1057800011F490E080E0919581959109DF91CF919E
:105790001F910F910895CF3FDC0741F30E945C2DCC
:1057A000801B910B8C179D0708F38EEF9FEFEECFB8
:1057B000CF92DF92EF92FF920F931F93CF93DF93DD
:1057C0006B018A017901B9010E942F2BE6010C0DB2
:1057D0001D1DC017D10761F424E92093BC00DF919F
:1057E000CF911F910F91FF90EF90DF90CF90089590
:1057F00097FDF2CFB70189910E94A92BEACFCF92F2
:10580000DF92EF92FF920F931F93CF93DF93C62FF8
:105810006A017901B8010E942F2B97FD0CC0B801D5
:105820008C2F0E94A92BE601EC0CFD1CCE15DF0588
:1058300011F097FF0CC024E92093BC00DF91CF91B9
:105840001F910F91FF90EF90DF90CF900895B801D6
:1058500089910E94A92BEACF84E98093BC00089526
:1058600090937A02809379020895E0917902F09101
:105870007A02309721F00190F081E02D099480E0C8
:105880000895E0917902F0917A02309721F0028038
:10589000F381E02D09940895E0917902F0917A0264
:1058A000309739F022E0DC012C930480F581E02D63
:1058B00009940895209177023091780228173907CA
:1058C00071F09093780280937702E0917902F091E1
:1058D0007A02309721F00680F781E02D099408952F
:1058E00020917502309176022817390771F0909354
:1058F000760280937502E0917902F0917A023097F6
:1059000021F00084F185E02D099408959C012E5F1B
:105910003F4FAC01485F5F4F80E02417350709F423
:105920000895F90191919F019923B9F38F5FF5CF04
:10593000662349F0FC01329608962191261729F03A
:10594000E817F907D1F780E0089581E008959C01F8
:10595000FC0132969FEF80E04191461751F09F3F46
:1059600019F4411101C0982F8F5F8630A9F79F3F2E
:1059700009F40895290F311D97FD3A95F9016283C5
:105980000895FC01329608962191261303C0DF0189
:1059900011971C92E817F907B9F708950C94A72CF2
:1059A0000C94C12C029626E0FC0111922A95E9F78D
:1059B00008950895089508950C94DB2C80917E023B
:1059C000882349F10E94DC2C80E00E94F4101092A0
:1059D0007B0288E190E020E40FB6F894A8958093CC
:1059E00060000FBE2093600083B7817F846083BF17
:1059F00083B7816083BF7894889583B78E7F83BF98
:105A00000FB6F894A895809160008861809360003B
:105A1000109260000FBE08950895CF930E94DA2C73
:105A20000E94D81E0E940C2DC0E08C2F0E94161ED2
:105A3000811105C0CF5FC730C1F7CF91089581E0D4
:105A4000FCCF08950C94212D0E949E140E94352CA9
:105A50000E94F4100C94222D1F921FB61F92112445
:105A60008F939F93AF93BF9380917B02811113C05B
:105A70008091550590915605A0915705B091580514
:105A80004196A11DB11D8093550590935605A09395
:105A90005705B0935805BF91AF919F918F911F907B
:105AA0001FBE1F90189582E084BD93E095BD9AEFCC
:105AB00097BD80936E0008952FB7F8948091550597
:105AC00090915605A0915705B09158052FBF0895A4
:105AD0002FB7F89460915505709156058091570540
